:02000000912845
:100008007E14803120007F08AC00B125003A031926
:100018008A2801302000D0070030D13D013051023C
:10002800F53003195002031C8A28D001D10155303C
:10003800AA002A08A2000E30AB002B08A3003B3010
:10004800662456302000AA002A08F00055305A25A8
:1000580058302000AA002A08F00057305A255A3094
:100068002000AA002A08F00059305A255C302000E8
:10007800AA002A08F0005B305A255E302000AA004A
:100088002A08F0005D305A2560302000AA002A08AE
:10009800F0005F305A2562302000AA002A08F000DC
:1000A80061305A25FF30BC25FF30BC25FF30BC2508
:1000B800FF30BC25FF30BC2520005508BC2520009A
:1000C8005608BC2520005708BC2520005808BC2528
:1000D80020005908BC2520005A08BC2520005B08D0
:1000E800BC2520005C08BC2520005D08BC2520003C
:1000F8005E08BC2520005F08BC2520006008BC25E0
:1001080020006108BC2520006208BC251624CA25E9
:1001180020002C08FF007E10090092284830840037
:10012800003085001B30C425A030840000308500D5
:100138001330C4257E102000DD2B2000B100462995
:100148000530240014052000AF00240016081F39CC
:1001580020002F04031DA4282400161405302400B1
:1001680014052000AF00240016081F3920002F04B2
:10017800031DB2280314310D240091001419C2285C
:100188000030161B01302000B2003208031D102970
:10019800B3012E0833020318102905302400140572
:1001A8002000AF00240016081F3920002F04031D6B
:1001B800D128240096159619DF2811082000AF00D1
:1001C80033082D07B0003008860087012F0881000A
:1001D8000530240014052000AF00240016081F393C
:1001E80020002F04031DEC282E08FF3EAF00FF302F
:1001F80003180030B00033082F063004031D072908
:10020800240096160929240096121616013020009B
:10021800AF002F08B307CD280530240014052000AF
:10022800AF00240016081F3920002F04031D1029D1
:10023800240016154F292400941D141E4F29200050
:10024800B4012E08340203183C293408A83E86005D
:1002580087010108AF0034082D07B0003008860078
:1002680087012F0881000130AF002F08B407252926
:10027800A830FF3A013E210031072000AF002F08C7
:10028800B2004F2921003208003A0319A428013A84
:1002980003191F294F292000320808002000B10047
:1002A800DD290530240014052000AF0024001608BD
:1002B8001F3920002F04031D55292400161405306A
:1002C800240014052000AF00240016081F39200060
:1002D8002F04031D63293135240091001419722954
:1002E8000030161B01302000B4003408031DA92972
:1002F800B20182290130AF002F08B2072E0832025E
:100308000318A9290530240014052000AF00240093
:1003180016081F3920002F04031D862932082D07CF
:10032800AF002F08860087010108240091001419E6
:100338009B290030161B01302000B4003408031933
:100348007E290230AF002F08B400053024001405C0
:100358002000AF00240016081F3920002F04031DB9
:10036800A92924001615E6292400941D141EDA294B
:100378002000B3012E0833020318D52933082D07AE
:10038800AF002F08860087010108B0003308A03E9F
:1003980086008701300881000130AF002F08B307BD
:1003A800BE292E08AF002F08B400E6292000B401AA
:1003B800E62921003208003A03195529013A0319A0
:1003C800B829E629200034080800F4006F2A05300F
:1003D80024001405F20016081F397204031DEB29C6
:1003E800161405301405F20016081F397204031D8F
:1003F800F5290314740D91001419002A0030161BF6
:100408000130F5007508031D402AF60171087602CF
:100418000318402A05301405F20016081F39720423
:10042800031D0E2A96159619172A1108F200760848
:100438007007F30073088600870172088100053091
:100448001405F20016081F397204031D232A7108C7
:10045800FF3EF200FF3003180030F3007608720602
:100468007304031D392A96163A2A96121616013075
:10047800F2007208F6070A2A05301405F200160879
:100488001F397204031D402A1615782A2400941D6A
:10049800141E782AF701710877020318662A77086C
:1004A800A83E860087010108F20077087007F3006C
:1004B800730886008701720881000130F200720813
:1004C800F7074F2AA830FF3A013E21003107F20012
:1004D8007208F500782A21003208003A0319EB293E
:1004E800013A03194A2A782A75080800F400ED2A07
:1004F800053024001405F20016081F397204031D84
:100508007C2A161405301405F20016081F397204E7
:10051800031D862A743591001419902A0030161B81
:100528000130F7007708031DC02AF5019F2A013022
:10053800F2007208F507710875020318C02A053021
:100548001405F20016081F397204031DA32A750842
:100558007007F200720886008701010891001419DB
:10056800B32A0030161B0130F700770803199B2ABD
:100578000230F2007208F70005301405F200160880
:100588001F397204031DC02A1615F62A2400941D6B
:10059800141EEB2AF601710876020318E62A76087B
:1005A8007007F2007208860087010108F3007608D8
:1005B800A03E86008701730881000130F2007208AE
:1005C800F607CF2A7108F2007208F700F62AF70139
:1005D800F62A21003208003A03197C2A013A031945
:1005E800CA2AF62A7708080020002F088A002E0851
:1005F8000A00823120003108B30033082100B2001C
:100608003D2B2400951520003208031D0F2B2400D4
:1006180094174F30192B20003203031D1A2B7F30FB
:10062800B3003308240094051330920024003B2BB8
:100638002400940120003208031D252B2400941760
:100648002E2B20003203031D2E2B7F30B3003308DE
:100658002400940506302000B300330824009504D4
:1006680016142000303524009200FE3093009516B1
:10067800462B20003108003A0319052B013A0319CB
:100688001C2B462B210091159215200091119211D7
:100698000B178B1708002000911D9B2B2100911D23
:1006A8009B2B2400941E722B141D652B161B992B53
:1006B80014080139F000150E01397004031D5C2B74
:1006C800852B1108F0002100310886008701700889
:1006D80081000130F0007008B107972B941A992B0C
:1006E8001108141D922BA030F00070082100B000F2
:1006F800240014080139F000150E01397004031D97
:100708007C2B210030088600870101082400910015
:100718000130F00070082100B007972BA830F000D6
:1007280070082100B1002400151620009111210045
:10073800921D08002000921D080092110800200058
:100748002F088A002E080A008331203023009E00DB
:1007580010309D009F1520003008B100B201B1355E
:10076800B20D7430310784008530323D85000008B1
:1007780023009B0020003008B100B201B135B20D52
:100788007430310784008530323D8500003FB30066
:10079800013FB400340823009C002000911221007E
:1007A80091160B178B1723009D172000D401D30136
:1007B8000800A42594302000AE000530AF00B00139
:1007C800B101B201B20AF82284302000AE0005302F
:1007D800AF0003302100B60036082000B000A32384
:1007E80005302100B7000F30B600F130890BFA2B25
:1007F800B60BFA2BB70BFA2BD02405302100B70023
:100808000F30B600F130890B072CB60B072CB70B4D
:10081800072C7D302100B60036082000AD000530D9
:100828003F24152C2000911E080023001908F00011
:100838007008F10020005308013E0739F0007008E5
:10084800F200720854060319352C7108F000530899
:10085800483E86008701700881007208F000700821
:10086800D30023009D1C3C2C1D129D18392C1D16ED
:100878002000911208002000AF00DF30AE002E08E3
:1008880021009505F7302000AE002E0821009505BF
:10089800F8302000AE002E082100950520002F0812
:1008A800AE002E082100950420002D03FF3AFF3EDC
:1008B800AE002E08D200520895000B118B160B17AC
:1008C8008B1708002000A900A8016830A40024089C
:1008D800F8002930A5002508F900FA01FA0A0030C5
:1008E80024252000A6002608A8076830A4002408AC
:1008F800F8002208A5002508F9002308A600260804
:10090800FA0000303F252000A7002708A8070800A4
:100918002000C200C1016830BE003E08B500423068
:10092800BF003F08B600B701B70A0030EE24200028
:10093800C0004008C1076830BE003E08B5003D0849
:10094800BF003F08B600B701B70A003009252000EC
:10095800C0004008C107410808002000C200C301C8
:100968004208BE003E08C4003D08BE003E08C5005F
:100978006830BE003E08B5004430BF003F08B600EE
:100988000230C0004008B7000030EE242000C1004B
:100998004108C30743080800B5302000C6004608D0
:1009A800BD0075308C242000C70047082100B30023
:1009B80068303506031D0800B40134082000C6005D
:1009C8004608BD006B30B1242000C700470821004D
:1009D800B30708002000BB00BC01BC03022D360889
:1009E800B8003808AD003708B9003908AE00350836
:1009F80052212000BA003A08BC00072D3B08003AF3
:100A08000319F32C072D3C0808002000BB00BC018B
:100A1800BC031D2D3608B8003808AD003708B900EA
:100A28003908AE003508A1202000BA003A08BC00F9
:100A3800222D3B08003A03190E2D222D3C080800F0
:100A48002000A000A101A103382D7908FB007B0834
:100A5800F0007A08FC007C08F10078087A22FD0092
:100A68007D082000A1003D2D2008003A0319292DFA
:100A78003D2D210808002000A000A101A103532D4D
:100A88007908FB007B08F0007A08FC007C08F1007C
:100A98007808E921FD007D082000A100582D2008D4
:100AA800003A0319442D582D21080800F300730853
:100AB800860087010108F1007108F20070088600BD
:100AC80087010108F1007308860087017108810019
:100AD8007208F1007008860087017108810008001B
:100AE8000A341A3404340D3440340334CF34003417
:100AF800BF340034673400342234003410340034F6
:100B0800EF302000AD002D0821008C05EF302000CB
:100B1800AD002D0823008C0522001D159D17080027
:100B280021008C140C15FD302000AD002D08230089
:100B38008C05FB302000AD002D0823008C05080033
:100B4800F030210099008C0123008C0124008C01D5
:100B580022009D0120008C0108008B1A0B1DBA2D64
:100B68002000520895000B110130080000300800E1
:100B7800F0002000111EBD2D700823009A00080007
:100B8800640080010131890BC52D00344F23080012
:020000040001F9
:04000E00A4C9FFDDA5
:00000001FF
