:020000001028C6
:100008007E14803120007F08F300F822FA23730859
:100018002000FF007E1009001128F801F901533073
:100028008400003085001B30F4237E1020001C283B
:10003800DF23C430F5000330F60003302000BA0097
:100048003A08F7009922D2302000A0000330A1001E
:10005800A201A301A401A40AF021632345302000D2
:10006800BA003A08AC000E30BB003B08AD003B308C
:10007800D1222000BC003C08BD004508BA003A085F
:10008800BE004608BA003A08C5003E08BA003A0859
:10009800C6004708BA003A08BF004808BA003A083C
:1000A800C7003F08BA003A08C8004908BA003A0829
:1000B800C0004A08BA003A08C9004008BA003A081D
:1000C800CA004B08BA003A08C1004C08BA003A08FE
:1000D800CB004108BA003A08CC004D08BA003A08EB
:1000E800C2004E08BA003A08CD004208BA003A08E1
:1000F800CE004F08BA003A08C3005008BA003A08C0
:10010800CF004308BA003A08D0005108BA003A08AC
:10011800C4005208BA003A08D1004408BA003A08A4
:10012800D200FF30EC23FF30EC23FF30EC23FF300C
:10013800EC23FF30EC2320004508EC232000460880
:10014800EC2320004708EC2320004808EC2320007B
:100158004908EC2320004A08EC2320004B08EC2334
:1001680020004C08EC2320004D08EC2320004E080A
:10017800EC2320004F08EC2320005008EC2320003B
:100188005108EC2320005208EC2332282000A0005C
:100198005C29053024001405F60016081F3976047A
:1001A800031DCD28161405301405F60016081F394E
:1001B8007604031DD72803142000200D2400910085
:1001C8001419E4280030161B01302000A100210872
:1001D800031D2C29A2017508220203182C290530B9
:1001E80024001405F60016081F397604031DF328A9
:1001F80096159619FD281108F600200022087407A4
:10020800F70077088600870176088100053024000A
:100218001405F60016081F397604031D0A29750807
:10022800FF3EF600FF3003180030F70020002208D8
:1002380076067704031D2329240096162529240011
:10024800961216160130F60076082000A207EF284D
:10025800053024001405F60016081F397604031D1E
:100268002C29161564292400941D141E64292000C5
:10027800A30175082302031854292308633E860046
:1002880087010108F60023087407F700770886003D
:100298008701760881000130F6007608A3073D291A
:1002A8006330FF3A013E6C07F6007608A100642926
:1002B8006D08003A0319CD28013A03193729642932
:1002C8002000210808002000A000E52905302400AE
:1002D8001405F60016081F397604031D6A2916143A
:1002E80005301405F60016081F397604031D742915
:1002F8002000203524009100141980290030161B95
:1003080001302000A3002308031DB529A10190296D
:100318000130F6007608A107750821020318B529EF
:10032800053024001405F60016081F397604031D4D
:100338009429200021087407F600760886008701B2
:100348000108240091001419A7290030161B013058
:100358002000A300230803198C290230F600760830
:10036800A300053024001405F60016081F3976048A
:10037800031DB5291615ED292400941D141EE22924
:100388002000A201750822020318DD29220874073B
:10039800F6007608860087010108F70022085B3E10
:1003A80086008701770881000130F6007608A207E9
:1003B800C6297508F6007608A300ED292000A301D8
:1003C800ED296D08003A03196A29013A0319C02971
:1003D800ED29200023080800200021088A002008B1
:1003E8000A00813120002308F5007508ED00332A42
:1003F8002400951520002408031D062A24009417BC
:100408004F30102A20002403031D112A7F30F500E5
:10041800750824009405133092002400312A240022
:10042800940120002408031D1C2A24009417252A5F
:1004380020002403031D252A7F30F50075082400B9
:1004480094050630F500750824009504161420005C
:10045800223524009200FE30930095163C2A200095
:100468002308003A0319FC29013A0319132A3C2AE4
:100478002100911592152000911192110B178B17DD
:1004880008002000911D912A2100911D912A240025
:10049800941E682A141D5B2A161B8F2A140801391A
:1004A800F000150E01397004031D522A7B2A110829
:1004B800F00020006C088600870170088100013078
:1004C800F0007008EC078D2A941A8F2A1108141D61
:1004D800882A5B30F00070082000EB002400140824
:1004E8000139F000150E01397004031D722A20002D
:1004F8006B08860087010108240091000130F00094
:1005080070082000EB078D2A6330F0007008200087
:10051800EC0024001516200091112100921D0800FE
:100528002000921D08009211080076088A007508BC
:100538000A008231203023009E0010309D009F1554
:1005480077082000A000A101A035A10DB430200734
:1005580084008330213D8500000823009B00770834
:100568002000A000A101A035A10DB430200784000F
:100578008330213D8500003FA200013FA3002308EE
:1005880023009C0020009112210091160B178B1755
:1005980023009D17F901F80108002000B200B301FB
:1005A8006830AE002E08A4003230AF002F08A50036
:1005B800A601A60A00307E232000B0003008B30749
:1005C8006830AE002E08A4002C08AF002F08A50044
:1005D8002D08B0003008A600003099232000B10093
:1005E8003108B307330808002000911E08002300D3
:1005F8001908F0007008F1007808013E0739F0008A
:100608007008F200720879060319162B7108F000B9
:100618007808533E86008701700881007208F00050
:100628007008F8009D1C1C2B1D129D18192B1D16F7
:100638002000911208002000B000B1016830AD0020
:100648002D08A4003030AE002E08A500A601A60A89
:1006580000307E232000AF002F08B1076830AD00BE
:100668002D08A4002C08AE002E08A500A601A60A95
:10067800003099232000AF002F08B1073108080087
:100688002000B100B4013108AD002D08B2002C08DB
:10069800AD002D08B3006830AD002D08A40032303D
:1006A800AE002E08A5000230AF002F08A6000030CB
:1006B8007E232000B0003008B40734080800393021
:1006C8002000B5003508AC0075301F232000B600A7
:1006D8003608B70068303906031D0800B801380825
:1006E800B5003508AC006B3044232000B60036084E
:1006F800B70708002000AA00AB01AB03922B25081E
:10070800A7002708F4002608A8002808F5002408F0
:1007180067212000A9002908AB00972B2A08003A76
:100728000319832B972B2B0808002000AA00AB0184
:10073800AB03AD2B2508A7002708F4002608A8005E
:100748002808F5002408CA202000A9002908AB00C1
:10075800B22B2A08003A03199E2BB22B2B0808004B
:100768000A341A3404340D3440340334CF3400349A
:10077800BF34003467340034223400341034003479
:10078800EF30F400740821008C05EF30F400740891
:1007980023008C0522001D159D17080021008C14CC
:1007A8000C15FD30F400740823008C05FB30F400B0
:1007B80074088C050800F030210099008C01230092
:1007C8008C0124008C0122009D0120008C0108006E
:1007D800F4002000111EED2B740823009A00080075
:1007E800640080010131890BF52B00344522080093
:020000040001F9
:04000E00A4C9FFDDA5
:00000001FF
