:020000000F28C7
:100008007E14803120007F08F300532073082000FD
:10001800FF007E1009001028F801F9012030840043
:10002800003085003330E5207E102000B2287608A5
:100038008A0075080A008031203023009E001030A5
:100048009D009F1577082000D300D401D335D40D27
:100058007A30530784008030543D8500000823001F
:100068009B0077082000D300D401D335D40D7A3013
:10007800530784008030543D8500003FD500013F80
:10008800D600560823009C002000911221009116EA
:100098000B178B1723009D17F901F80108002000A2
:1000A800911E080023001908F0007008F100780874
:1000B800013E1F39F0007008F20072087906031932
:1000C80071287108F0007808203E860087017008C2
:1000D80081007208F0007008F8009D1C77281D1236
:1000E8009D1874281D162000911208000A341A342D
:1000F80004340D3440340334CF340034BF34003476
:100108006734003422340034103400344834653401
:100118006C346C346F34203457346F3472346C342C
:1001280064340A34003478302000D3005308D600F1
:1001380077082000D4007608D300F60A0319F70AD6
:1001480053088400540885000008D5005508D700D6
:100158005708031908005708EB209C28D020C33003
:10016800F5000030F60003302000D8005808F700EA
:100178001B208A30F6008030F7009720BD28EF302A
:10018800F400740821008C05EF30F4007408230093
:100198008C0522001D150800F030210099008C0103
:1001A80023008C0124008C0122009D0120008C0179
:1001B8000800F4002000111EDE28740823009A00AD
:1001C8000800640080010131890BE6280034F5003D
:0601D8007508DD2008009F
:020000040001F9
:04000E00E4C9FFDD65
:00000001FF
