:020000001028C6
:100008007E14803120007F08F300D923F12473087F
:100018002000FF007E1009001128F801F901533073
:100028008400003085001B30E7247E10200053290F
:100038002000A000AE28053024001405F60016089C
:100048001F397604031D1F28161405301405F60001
:1000580016081F397604031D292803142000200DD3
:1000680024009100141936280030161B0130200096
:10007800A1002108031D7E28A20175082202031889
:100088007E28053024001405F60016081F3976046A
:10009800031D4528961596194F281108F6002000CB
:1000A80022087407F7007708860087017608810020
:1000B800053024001405F60016081F397604031DC0
:1000C8005C287508FF3EF600FF3003180030F70083
:1000D8002000220876067704031D7528240096164A
:1000E80077282400961216160130F60076082000AC
:1000F800A2074128053024001405F60016081F3908
:100108007604031D7E281615B6282400941D141E97
:10011800B6282000A301750823020318A62823087F
:10012800633E860087010108F60023087407F7007C
:10013800770886008701760881000130F600760886
:10014800A3078F286330FF3A013E6C07F600760854
:10015800A100B6286D08003A03191F28013A0319AF
:100168008928B62820002108080026302000AE0083
:100178002E08B40020002508AF002408AE00A40A09
:100188000319A50A2E0884002F0885000008B0006E
:100198003008B80038080319080025303806031954
:1001A800D8283808ED24BE282000B2012508AF0061
:1001B8002408AE00A40A0319A50A2E0884002F08F3
:1001C80085000008B800003A03195229783A031943
:1001D800EE28BE28340886008701403FB500413F1D
:1001E800B6000230AE002E08B407B801B80A0430D1
:1001F800380603191E293808AE00AF01AE35AF0D19
:1002080080302E07840084302F3D8500003FB000E9
:10021800013FB10031083602031D142930083502A8
:10022800031C1E290130AE002E08B807043038061A
:10023800031DFF283808AE002E08B700FF30200045
:10024800AE002E08B707370A0319BE283708AE00D4
:10025800AF01AE35AF0D80302E07840084302F3DBE
:100268008500003FF400013FF5003608F700350827
:10027800F600522374080F392000B0003008B3008C
:100288003308883E840084300318013E8500000846
:10029800AE002E08B8003808ED2422290800D22420
:1002A800B730F5000430F60003302000B9003908F3
:1002B800F7001A23C5302000A0000430A100A201D5
:1002C800A301A401A40A7122872345302000B900A4
:1002D8003908AC000E30BA003A08AD003B30B22302
:1002E8002000BB003B08BD004508B9003908BE0026
:1002F8004608B9003908C5003E08B9003908C600E3
:100308004708B9003908BF004808B9003908C700CC
:100318003F08B9003908C8004908B9003908C000C1
:100328004A08B9003908C9004008B9003908CA00A4
:100338004B08B9003908C1004C08B9003908CB008E
:100348004108B9003908CC004D08B9003908C20085
:100358004E08B9003908CD004208B9003908CE0066
:100368004F08B9003908C3005008B9003908CF0050
:100378004308B9003908D0005108B9003908C40049
:100388005208B9003908D1004408B9003908D20028
:10039800A930A4008430A5005630A6000030A7007C
:1003A8004608A9004508A8004508B900BA01390857
:1003B800AA003A08AB004608BB00BC013B08AC00E9
:1003C8003C08AD00B92069292000A000662A053044
:1003D80024001405F60016081F397604031DEB29BE
:1003E800161405301405F60016081F397604031D87
:1003F800F52920002035240091001419012A003025
:10040800161B01302000A3002308031D362AA10172
:10041800112A0130F6007608A10775082102031891
:10042800362A053024001405F60016081F3976040C
:10043800031D152A200021087407F6007608860097
:1004480087010108240091001419282A0030161B7E
:1004580001302000A300230803190D2A0230F600FA
:100468007608A300053024001405F60016081F3985
:100478007604031D362A16156E2A2400941D141EB0
:10048800632A2000A2017508220203185E2A2208A6
:100498007407F6007608860087010108F70022082D
:1004A8005B3E86008701770881000130F6007608F8
:1004B800A207472A7508F6007608A3006E2A2000CE
:1004C800A3016E2A6D08003A0319EB29013A0319B2
:1004D800412A6E2A200023080800200021088A00EB
:1004E80020080A00823120002308F5007508ED0075
:1004F800B42A2400951520002408031D872A240007
:1005080094174F30912A20002403031D922A7F302C
:10051800F500750824009405133092002400B22ACF
:100528002400940120002408031D9D2A2400941708
:10053800A62A20002403031DA62A7F30F50075088B
:10054800240094050630F500750824009504161457
:100558002000223524009200FE3093009516BD2A13
:1005680020002308003A03197D2A013A0319942A26
:10057800BD2A2100911592152000911192110B1797
:100588008B1708002000911D122B2100911D122BA2
:100598002400941EE92A141DDC2A161B102B1408AB
:1005A8000139F000150E01397004031DD32AFC2A05
:1005B8001108F00020006C0886008701700881008F
:1005C8000130F0007008EC070E2B941A102B11085C
:1005D800141D092B5B30F00070082000EB0024008C
:1005E80014080139F000150E01397004031DF32AAF
:1005F80020006B0886008701010824009100013063
:10060800F00070082000EB070E2B6330F000700834
:100618002000EC0024001516200091112100921DE5
:1006280008002000921D08009211080076088A0030
:1006380075080A008331203023009E0010309D0089
:100648009F1577082000A000A101A035A10D9930C1
:10065800200784008430213D8500000823009B008A
:1006680077082000A000A101A035A10D993020072E
:1006780084008430213D8500003FA200013FA30093
:10068800230823009C0020009112210091160B17CB
:100698008B1723009D17F901F80108002000A2011B
:1006A800A301740875040319822BA101A10AF51B83
:1006B800672B0130F435F50D890B5E2B0130A00056
:1006C8002008A1075B2B0130A235A30D890B682BED
:1006D80075087702031D722B74087602031C792BA8
:1006E8007408F6027508F73B22140130F536F40C4D
:1006F800890B7A2B0130A102031D672B2308F50013
:100708002208F400080035302000B2003208AC009E
:10071800753025242000B3003308B4003508B20032
:100728000130B236890B952B68303206031D08005C
:10073800B6013608B2003208AC006B300024200045
:10074800B3003308B4073630B2003208AC006B305F
:1007580025242000B3003308B40708002000B200A5
:10076800B3016830AE002E08A4003230AF002F0865
:10077800A500A601A60A00304A242000B0003008CF
:10078800B3076830AE002E08A4002C08AF002F086D
:10079800A5002D08B0003008A60000306524200010
:1007A800B1003108B307330808002000911E080083
:1007B80023001908F0007008F1007808013E073995
:1007C800F0007008F200720879060319F72B710817
:1007D800F0007808533E860087017008810072088F
:1007E800F0007008F8009D1CFD2B1D129D18FA2BB7
:1007F8001D162000911208002000B000B1016830D9
:10080800AD002D08A4003030AE002E08A500A601CA
:10081800A60A00304A242000AF002F08B10768302C
:10082800AD002D08A4002C30AE002E08A500A601AE
:10083800A60A00304A242000AF002F08B10731086B
:1008480008002000B000B1016830AD002D08A400F8
:100858003030AE002E08A500A601A60A00304A24B2
:100868002000AF002F08B1076830AD002D08A400A4
:100878002C08AE002E08A500A601A60A00306524A3
:100888002000AF002F08B107310808002000AA0097
:10089800AB01AB035E2C2508A7002708F400260847
:1008A800A8002808F5002408E8212000A900290844
:1008B800AB00632C2A08003A03194F2C632C2B0831
:1008C80008002000AA00AB01AB03792C2508A7007B
:1008D8002708F4002608A8002808F50024081C208A
:1008E8002000A9002908AB007E2C2A08003A031929
:1008F8006A2C7E2C2B080800013400341034003494
:100908000034013400341034303431343234333468
:100918003434353436343734383439346134623425
:10092800633464346534663400340A341A34043465
:100938000D3440340334CF340034BF3400346734CA
:100948000034223400341034003425347834203410
:1009580025347834203425347834203425347834D8
:1009680020340A340034EF30F400740821008C0578
:10097800EF30F400740823008C0522001D159D1724
:10098800080021008C140C15FD30F40074082300B5
:100998008C05FB30F40074088C050800F030210049
:1009A80099008C0123008C0124008C0122009D01F8
:1009B80020008C010800F4002000111EE02C7408AF
:1009C80023009A000800640080010131890BE82C9B
:0E09D8000034F5007508DF240800C622080070
:020000040001F9
:04000E00A4C9FFDDA5
:00000001FF
