:020000001028C6
:100008007E14803120007F08F3006821CC2173081A
:100018002000FF007E1009001128F801F9012030A6
:100028008400003085003330C6217E1020001C2853
:10003800B9219F30F5000130F60003302000D800C8
:100048005808F7003021AC302000D3000130D4002C
:10005800D501D601D701D70A872020005A08D80031
:100068005808D9005B08D8005808DA005908D800A1
:100078005808DB005C08D8005808D9005D08D8008B
:100088005808DC005908D8005808DD005E08D80078
:100098005808D9005F08D8005808DE005908D80069
:1000A8005808DF006008D8005808D9006108D8004F
:1000B8005808E0005908D8005808E1006208D8003C
:1000C8005808D9006308D8005808E2005908D80031
:1000D8005808E3006408D8005808D9006508D80013
:1000E8005808E4005908D8005808E5006608D80000
:1000F8005808D9006708D8005808E6005908D800F9
:100108005808E7003128200054088A0053080A00DC
:10011800803120005608F5007508D200CA2824004E
:10012800951520005708031D9D28240094174F306B
:10013800A72820005703031DA8287F30F50075085D
:1001480024009405133092002400C8282400940148
:1001580020005708031DB32824009417BC2820004A
:100168005703031DBC287F30F5007508240094054B
:100178000630F5007508240095041614200055353E
:1001880024009200FE3093009516D32820005608CC
:10019800003A03199328013A0319AA28D328210001
:1001A800911592152000911192110B178B170800C9
:1001B8002000911D28292100911D28292400941E22
:1001C800FF28141DF228161B262914080139F000EF
:1001D800150E01397004031DE92812291108F000D1
:1001E8002000510886008701700881000130F00066
:1001F8007008D1072429941A26291108141D1F29CB
:100208004030F00070082000D000240014080139A4
:10021800F000150E01397004031D0929200050084B
:10022800860087010108240091000130F000700861
:100238002000D00724294830F00070082000D100A1
:1002480024001516200091112100921D080020009D
:10025800921D08009211080076088A0075080A00A5
:100268008131203023009E0010309D009F157708B3
:100278002000D300D401D335D40D8F305307840028
:100288008130543D8500000823009B00770820003A
:10029800D300D401D335D40D8F3053078400813077
:1002A800543D8500003FD500013FD6005608230085
:1002B8009C0020009112210091160B178B17230028
:1002C8009D17F901F80108002000911E080023007D
:1002D8001908F0007008F1007808013E1F39F00095
:1002E8007008F20072087906031986297108F0006F
:1002F8007808203E86008701700881007208F000A7
:100308007008F8009D1C8C291D129D1889291D163E
:100318002000911208000A341A3404340D34403491
:100328000334CF340034BF3400346734003422340B
:10033800003410340034EF30F400740821008C05C8
:10034800EF30F400740823008C0522001D15080006
:1003580021008C140C15FD30F400740823008C0562
:10036800FB30F40074088C050800F0302100990077
:100378008C0123008C0124008C0122009D012000A7
:100388008C010800640080010131890BC729003401
:04039800DC2008005D
:020000040001F9
:04000E00E4C9FFDD65
:00000001FF
