:020000001028C6
:100008007E14803120007F08F300CA21572273082C
:100018002000FF007E10090011281B308400823068
:1000280085004F308600003087000D304B22F801E4
:10003800F9013C3084000030850013305122A03093
:10004800840000308500203051227E10200096293F
:100058002000A000AA28053024001405F600160880
:100068001F397604031D2F28161405301405F600D1
:1000780016081F397604031D39282000203524006E
:100088009100141945280030161B01302000A300E8
:100098002308031D7A28A10155280130F6007608A7
:1000A800A1077508210203187A28053024001405D1
:1000B800F60016081F397604031D59282000210868
:1000C8007407F6007608860087010108240091006D
:1000D80014196C280030161B01302000A3002308D7
:1000E800031951280230F6007608A30005302400D1
:1000F8001405F60016081F397604031D7A2816150C
:10010800B2282400941D141EA7282000A2017508F7
:1001180022020318A22822087407F600760886002F
:1001280087010108F70022083C3E8600870177080E
:1001380081000130F6007608A2078B287508F600C2
:100148007608A300B2282000A301B2284E08003A7E
:1001580003192F28013A03198528B22820002308FB
:100168000800200021088A0020080A0080312000A9
:100178002308F5007508CE00F828240095152000FE
:100188002408031DCB28240094174F30D5282000BD
:100198002403031DD6287F30F50075082400940534
:1001A800133092002400F62824009401200024082B
:1001B800031DE12824009417EA2820002403031DC6
:1001C800EA287F30F5007508240094050630F5000C
:1001D8007508240095041614200022352400920086
:1001E800FE3093009516012920002308003A0319D0
:1001F800C128013A0319D82801292100911592151F
:100208002000911192110B178B1708002000911DE7
:1002180056292100911D56292400941E2D29141DAC
:100228002029161B542914080139F000150E01392C
:100238007004031D172940291108F00020004D08FB
:1002480086008701700881000130F0007008CD0732
:100258005229941A54291108141D4D293C30F000D4
:1002680070082000CC00240014080139F000150E95
:1002780001397004031D372920004C0886008701C6
:100288000108240091000130F00070082000CC071C
:1002980052294430F00070082000CD0024001516C3
:1002A800200091112100921D08002000921D0800D5
:1002B8009211080076088A0075080A0081312030FA
:1002C80023009E0010309D009F1577082000A00095
:1002D800A101A035A10D0B30200784008230213DFB
:1002E8008500000823009B0077082000A000A101DA
:1002F800A035A10D0B30200784008230213D8500F8
:10030800003FA200013FA300230823009C00200017
:100318009112210091160B178B1723009D17F901D5
:10032800F801080042222830F5000230F6000330B8
:100338002000AC002C08F7005E2135302000A0001A
:100348000230A100A201A301A401A40AB5204F30E4
:100358008600003087002F308400003085000D3083
:100368002000AC0016001A00AC0BB629563020004D
:10037800AC002C08A4002F30AD002D08A5000D30CE
:10038800AE002E08A6000030F121BA292000911EE7
:10039800080023001908F0007008F1007808013EF1
:1003A8001F39F0007008F200720879060319E8296D
:1003B8007108F0007808A03E860087017008810067
:1003C8007208F0007008F8009D1CEE291D129D1897
:1003D800EB291D162000911208002000AB00AA018D
:1003E800AA03052A2508A7002708F4002608A8005C
:1003F8002808F50024082C202000A9002908AA00B4
:1004080008002B08003A0319F6290A2A08000A34BA
:100418001A3404340D3440340334CF340034BF3438
:100428000034673400342234003410340034573434
:1004380061346B34613462346134793461347334D7
:10044800683469340A340034EF30F4007408210049
:100458008C0522001D16EF30F400740823008C056B
:10046800080021008C140C15FD30F40074082300DA
:100478008C05FB30F40074088C05080021008C0101
:1004880023008C0122009D0120008C010800FE0041
:1004980012001E00FE0B4C2A00346400800101315A
:0A04A800890B522A00340A210800D3
:020000040001F9
:04000E00E4C9FFDD65
:00000001FF
