:040000000128F62FAE
:100EA800F10071085E270800640080010131890B98
:100EB800592F0034F0002000111E5F2F7008230006
:100EC8009A00080021008C0123008C0122009D015A
:100ED80020008C010800EF30F000700821008C051C
:100EE80022001D16EF30F000700823008C05080062
:100EF80066276F30F1000730F2000330F9007908F7
:100F0800F300C227B530F2008730F3008C27862F14
:100F18007430F4007408F7007308F5007208F400E0
:100F2800F20A0319F30A740884007508850000089A
:100F3800F6007608F800780803190800780854279E
:100F4800902F0A341A3404340D3440340334CF3427
:100F58000034BF3400346734003422340034103491
:100F68000034483465346C346C346F34203457346E
:100F78006F3472346C3464340A34003472088A0072
:100F880071080A008731203023009E0010309D0030
:100F98009F157308F400F501F435F50DA5307407B5
:100FA80084008730753D850000089B007308F400B5
:100FB800F501F435F50DA530740784008730753DCB
:100FC8008500003FF600013FF70077089C002000ED
:100FD8009112210091160B178B1723009D17FB0107
:100FE800FA010800FA01FB01203084000030850076
:080FF8002030582720007C2F57
:020000040001F9
:04000E00E4C9FFDD65
:00000001FF
