:020000001028C6
:100008007E14803120007F08F30010231224730827
:100018002000FF007E1009001128F801F901533073
:100028008400003085001B300C247E1020001C2822
:10003800F723EA302000A0000330A100A201A301A9
:10004800A401A40A0822DC30F5000330F6000330CE
:100058002000BA003A08F700B12205302000BB00A2
:100068000F30BA00F130890B3728BA0B3728BB0B91
:1000780037287B2305302000BB000F30BA00F13051
:10008800890B4428BA0B4428BB0B44284530200070
:10009800BA003A08AC000E30BB003B08AD003B305C
:1000A800E9222000BC003C08BD004508BA003A0817
:1000B800BE004608BA003A08C5003E08BA003A0829
:1000C800C6004708BA003A08BF004808BA003A080C
:1000D800C7003F08BA003A08C8004908BA003A08F9
:1000E800C0004A08BA003A08C9004008BA003A08ED
:1000F800CA004B08BA003A08C1004C08BA003A08CE
:10010800CB004108BA003A08CC004D08BA003A08BA
:10011800C2004E08BA003A08CD004208BA003A08B0
:10012800CE004F08BA003A08C3005008BA003A088F
:10013800CF004308BA003A08D0005108BA003A087C
:10014800C4005208BA003A08D1004408BA003A0874
:10015800D200FF300424FF300424FF300424FF3091
:100168000424FF3004242000450804242000460805
:100178000424200047080424200048080424200000
:100188004908042420004A08042420004B080424B9
:1001980020004C08042420004D08042420004E08A8
:1001A800042420004F0804242000500804242000C0
:1001B800510804242000520804244A282000A000E2
:1001C8007429053024001405F60016081F39760432
:1001D800031DE528161405301405F60016081F3906
:1001E8007604031DEF2803142000200D240091003D
:1001F8001419FC280030161B01302000A10021082A
:10020800031D4429A2017508220203184429053058
:1002180024001405F60016081F397604031D0B295F
:100228009615961915291108F6002000220874075A
:10023800F7007708860087017608810005302400DA
:100248001405F60016081F397604031D22297508BF
:10025800FF3EF600FF3003180030F70020002208A8
:1002680076067704031D3B29240096163D292400B1
:10027800961216160130F60076082000A207072904
:10028800053024001405F60016081F397604031DEE
:10029800442916157C292400941D141E7C2920004D
:1002A800A3017508230203186C292308633E8600FE
:1002B80087010108F60023087407F700770886000D
:1002C8008701760881000130F6007608A3075529D2
:1002D8006330FF3A013E6C07F6007608A1007C29DE
:1002E8006D08003A0319E528013A03194F297C29BA
:1002F8002000210808002000A000FD290530240066
:100308001405F60016081F397604031D82291614F1
:1003180005301405F60016081F397604031D8C29CC
:100328002000203524009100141998290030161B4C
:1003380001302000A3002308031DCD29A101A8290D
:100348000130F6007608A107750821020318CD29A7
:10035800053024001405F60016081F397604031D1D
:10036800AC29200021087407F6007608860087016A
:100378000108240091001419BF290030161B013010
:100388002000A30023080319A4290230F6007608E8
:10039800A300053024001405F60016081F3976045A
:1003A800031DCD291615052A2400941D141EFA29AB
:1003B8002000A201750822020318F52922087407F3
:1003C800F6007608860087010108F70022085B3EE0
:1003D80086008701770881000130F6007608A207B9
:1003E800DE297508F6007608A300052A2000A30177
:1003F800052A6D08003A03198229013A0319D829F8
:10040800052A200023080800200021088A00200867
:100418000A00823120002308F5007508ED004B2AF8
:100428002400951520002408031D1E2A2400941773
:100438004F30282A20002403031D292A7F30F50085
:10044800750824009405133092002400492A2400DA
:10045800940120002408031D342A240094173D2AFF
:1004680020002403031D3D2A7F30F5007508240071
:1004780094050630F500750824009504161420002C
:10048800223524009200FE3093009516542A20004D
:100498002308003A0319142A013A03192B2A542A6B
:1004A8002100911592152000911192110B178B17AD
:1004B80008002000911DA92A2100911DA92A2400C5
:1004C800941E802A141D732A161BA72A14080139A2
:1004D800F000150E01397004031D6A2A932A1108C9
:1004E800F00020006C088600870170088100013048
:1004F800F0007008EC07A52A941AA72A1108141D01
:10050800A02A5B30F00070082000EB0024001408DB
:100518000139F000150E01397004031D8A2A2000E4
:100528006B08860087010108240091000130F00063
:1005380070082000EB07A52A6330F000700820003F
:10054800EC0024001516200091112100921D0800CE
:100558002000921D08009211080076088A0075088C
:100568000A008231203023009E0010309D009F1524
:1005780077082000A000A101A035A10DCC302007EC
:1005880084008330213D8500000823009B00770804
:100598002000A000A101A035A10DCC3020078400C7
:1005A8008330213D8500003FA200013FA3002308BE
:1005B80023009C0020009112210091160B178B1725
:1005C80023009D17F901F80108002000B200B301CB
:1005D8006830AE002E08A4003230AF002F08A50006
:1005E800A601A60A003096232000B0003008B30701
:1005F8006830AE002E08A4002C08AF002F08A50014
:100608002D08B0003008A6000030B1232000B1004A
:100618003108B307330808002000911E08002300A2
:100628001908F0007008F1007808013E0739F00059
:100638007008F2007208790603192E2B7108F00071
:100648007808533E86008701700881007208F00020
:100658007008F8009D1C342B1D129D18312B1D1697
:100668002000911208002000B000B1016830AD00F0
:100678002D08A4003030AE002E08A500A601A60A59
:10068800003096232000AF002F08B1076830AD0076
:100698002D08A4002C08AE002E08A500A601A60A65
:1006A8000030B1232000AF002F08B107310808003F
:1006B8002000B100B4013108AD002D08B2002C08AB
:1006C800AD002D08B3006830AD002D08A40032300D
:1006D800AE002E08A5000230AF002F08A60000309B
:1006E80096232000B0003008B407340808003930D9
:1006F8002000B5003508AC00753037232000B6005F
:100708003608B70068303906031D0800B8013808F4
:10071800B5003508AC006B305C232000B600360805
:10072800B70708002000AA00AB01AB03AA2B2508D5
:10073800A7002708F4002608A8002808F5002408C0
:100748007F212000A9002908AB00AF2B2A08003A16
:1007580003199B2BAF2B2B0808002000AA00AB0124
:10076800AB03C52B2508A7002708F4002608A80016
:100778002808F5002408E2202000A9002908AB0079
:10078800CA2B2A08003A0319B62BCA2B2B080800D3
:100798000A341A3404340D3440340334CF3400346A
:1007A800BF34003467340034223400341034003449
:1007B800EF30F400740821008C05EF30F400740861
:1007C80023008C0522001D159D17080021008C149C
:1007D8000C15FD30F400740823008C05FB30F40080
:1007E80074088C050800F030210099008C01230062
:1007F8008C0124008C0122009D0120008C0108003E
:10080800F4002000111E052C740823009A0008002B
:10081800640080010131890B0D2C00345D22080031
:020000040001F9
:04000E00A4C9FFDDA5
:00000001FF
